{
  "_format": "hh-sol-artifact-1",
  "contractName": "BlueRegistrar",
  "sourceName": "contracts/BlueRegistrar.sol",
  "abi": [
    {
      "inputs": [
        {
          "internalType": "contract IBlue1155",
          "name": "_blue1155",
          "type": "address"
        },
        {
          "internalType": "contract IBlue721",
          "name": "_blue721",
          "type": "address"
        },
        {
          "internalType": "contract IBlue20",
          "name": "_blue20",
          "type": "address"
        },
        {
          "internalType": "contract IBlueAvatar",
          "name": "_blueAvatar",
          "type": "address"
        }
      ],
      "stateMutability": "nonpayable",
      "type": "constructor"
    },
    {
      "anonymous": false,
      "inputs": [
        {
          "indexed": true,
          "internalType": "address",
          "name": "previousOwner",
          "type": "address"
        },
        {
          "indexed": true,
          "internalType": "address",
          "name": "newOwner",
          "type": "address"
        }
      ],
      "name": "OwnershipTransferred",
      "type": "event"
    },
    {
      "inputs": [
        {
          "internalType": "address",
          "name": "",
          "type": "address"
        }
      ],
      "name": "balance",
      "outputs": [
        {
          "internalType": "uint256",
          "name": "lastDate",
          "type": "uint256"
        },
        {
          "internalType": "uint256",
          "name": "total",
          "type": "uint256"
        }
      ],
      "stateMutability": "view",
      "type": "function"
    },
    {
      "inputs": [],
      "name": "blue1155",
      "outputs": [
        {
          "internalType": "contract IBlue1155",
          "name": "",
          "type": "address"
        }
      ],
      "stateMutability": "view",
      "type": "function"
    },
    {
      "inputs": [],
      "name": "blue20",
      "outputs": [
        {
          "internalType": "contract IBlue20",
          "name": "",
          "type": "address"
        }
      ],
      "stateMutability": "view",
      "type": "function"
    },
    {
      "inputs": [],
      "name": "blue721",
      "outputs": [
        {
          "internalType": "contract IBlue721",
          "name": "",
          "type": "address"
        }
      ],
      "stateMutability": "view",
      "type": "function"
    },
    {
      "inputs": [],
      "name": "blueAvatar",
      "outputs": [
        {
          "internalType": "contract IBlueAvatar",
          "name": "",
          "type": "address"
        }
      ],
      "stateMutability": "view",
      "type": "function"
    },
    {
      "inputs": [],
      "name": "claimBlueToken",
      "outputs": [],
      "stateMutability": "nonpayable",
      "type": "function"
    },
    {
      "inputs": [],
      "name": "day",
      "outputs": [
        {
          "internalType": "uint256",
          "name": "",
          "type": "uint256"
        }
      ],
      "stateMutability": "view",
      "type": "function"
    },
    {
      "inputs": [],
      "name": "getCurrentDay",
      "outputs": [
        {
          "internalType": "uint256",
          "name": "",
          "type": "uint256"
        }
      ],
      "stateMutability": "view",
      "type": "function"
    },
    {
      "inputs": [],
      "name": "maxPerDay",
      "outputs": [
        {
          "internalType": "uint256",
          "name": "",
          "type": "uint256"
        }
      ],
      "stateMutability": "view",
      "type": "function"
    },
    {
      "inputs": [],
      "name": "owner",
      "outputs": [
        {
          "internalType": "address",
          "name": "",
          "type": "address"
        }
      ],
      "stateMutability": "view",
      "type": "function"
    },
    {
      "inputs": [
        {
          "internalType": "bytes",
          "name": "signature",
          "type": "bytes"
        }
      ],
      "name": "registerUser",
      "outputs": [],
      "stateMutability": "nonpayable",
      "type": "function"
    },
    {
      "inputs": [],
      "name": "renounceOwnership",
      "outputs": [],
      "stateMutability": "nonpayable",
      "type": "function"
    },
    {
      "inputs": [
        {
          "internalType": "uint256",
          "name": "_maxPerDay",
          "type": "uint256"
        }
      ],
      "name": "setMax",
      "outputs": [],
      "stateMutability": "nonpayable",
      "type": "function"
    },
    {
      "inputs": [
        {
          "internalType": "address",
          "name": "newOwner",
          "type": "address"
        }
      ],
      "name": "transferOwnership",
      "outputs": [],
      "stateMutability": "nonpayable",
      "type": "function"
    }
  ],
  "bytecode": "0x60806040526002600155620151806002553480156200001d57600080fd5b506040516200202a3803806200202a833981810160405281019062000043919062000471565b62000063620000576200025860201b60201c565b6200026060201b60201c565b600073ffffffffffffffffffffffffffffffffffffffff168473ffffffffffffffffffffffffffffffffffffffff1614158015620000ce5750600073ffffffffffffffffffffffffffffffffffffffff168373ffffffffffffffffffffffffffffffffffffffff1614155b8015620001085750600073ffffffffffffffffffffffffffffffffffffffff168273ffffffffffffffffffffffffffffffffffffffff1614155b6200014a576040517f08c379a0000000000000000000000000000000000000000000000000000000008152600401620001419062000544565b60405180910390fd5b83600460006101000a81548173ffffffffffffffffffffffffffffffffffffffff021916908373ffffffffffffffffffffffffffffffffffffffff16021790555082600560006101000a81548173ffffffffffffffffffffffffffffffffffffffff021916908373ffffffffffffffffffffffffffffffffffffffff16021790555081600660006101000a81548173ffffffffffffffffffffffffffffffffffffffff021916908373ffffffffffffffffffffffffffffffffffffffff16021790555080600760006101000a81548173ffffffffffffffffffffffffffffffffffffffff021916908373ffffffffffffffffffffffffffffffffffffffff1602179055505050505062000566565b600033905090565b60008060009054906101000a900473ffffffffffffffffffffffffffffffffffffffff169050816000806101000a81548173ffffffffffffffffffffffffffffffffffffffff021916908373ffffffffffffffffffffffffffffffffffffffff1602179055508173ffffffffffffffffffffffffffffffffffffffff168173ffffffffffffffffffffffffffffffffffffffff167f8be0079c531659141344cd1fd0a4f28419497f9722a3daafe3b4186f6b6457e060405160405180910390a35050565b600080fd5b600073ffffffffffffffffffffffffffffffffffffffff82169050919050565b6000620003568262000329565b9050919050565b60006200036a8262000349565b9050919050565b6200037c816200035d565b81146200038857600080fd5b50565b6000815190506200039c8162000371565b92915050565b6000620003af8262000349565b9050919050565b620003c181620003a2565b8114620003cd57600080fd5b50565b600081519050620003e181620003b6565b92915050565b6000620003f48262000349565b9050919050565b6200040681620003e7565b81146200041257600080fd5b50565b6000815190506200042681620003fb565b92915050565b6000620004398262000349565b9050919050565b6200044b816200042c565b81146200045757600080fd5b50565b6000815190506200046b8162000440565b92915050565b600080600080608085870312156200048e576200048d62000324565b5b60006200049e878288016200038b565b9450506020620004b187828801620003d0565b9350506040620004c48782880162000415565b9250506060620004d7878288016200045a565b91505092959194509250565b600082825260208201905092915050565b7f496e76616c696420617267730000000000000000000000000000000000000000600082015250565b60006200052c600c83620004e3565b91506200053982620004f4565b602082019050919050565b600060208201905081810360008301526200055f816200051d565b9050919050565b611ab480620005766000396000f3fe608060405234801561001057600080fd5b50600436106100ea5760003560e01c80637b76ac911161008c578063df09af8611610066578063df09af8614610203578063e3d670d71461020d578063f28f94951461023e578063f2fde38b1461025c576100ea565b80637b76ac91146101a95780638da5cb5b146101c7578063a813f621146101e5576100ea565b80634752d742116100c85780634752d742146101455780635cc91ab914610163578063715018a614610181578063732e00b21461018b576100ea565b80630a38178c146100ef5780631fe9eabc1461010b5780633e6968b614610127575b600080fd5b61010960048036038101906101049190610f9a565b610278565b005b61012560048036038101906101209190611019565b61049c565b005b61012f6104f1565b60405161013c9190611055565b60405180910390f35b61014d610511565b60405161015a91906110ef565b60405180910390f35b61016b610537565b6040516101789190611055565b60405180910390f35b61018961053d565b005b610193610551565b6040516101a0919061112b565b60405180910390f35b6101b1610577565b6040516101be9190611055565b60405180910390f35b6101cf61057d565b6040516101dc9190611167565b60405180910390f35b6101ed6105a6565b6040516101fa91906111a3565b60405180910390f35b61020b6105cc565b005b610227600480360381019061022291906111ea565b6108a9565b604051610235929190611217565b60405180910390f35b6102466108cd565b6040516102539190611261565b60405180910390f35b610276600480360381019061027191906111ea565b6108f3565b005b60003360405160200161028b91906112c4565b60405160208183030381529060405280519060200120905060006102c0836102b284610976565b6109a690919063ffffffff16565b90506102ca61057d565b73ffffffffffffffffffffffffffffffffffffffff168173ffffffffffffffffffffffffffffffffffffffff1614610337576040517f08c379a000000000000000000000000000000000000000000000000000000000815260040161032e9061133c565b60405180910390fd5b6000600360003373ffffffffffffffffffffffffffffffffffffffff1673ffffffffffffffffffffffffffffffffffffffff16815260200190815260200160002060000154146103bc576040517f08c379a00000000000000000000000000000000000000000000000000000000081526004016103b3906113a8565b60405180910390fd5b6103c46104f1565b600360003373ffffffffffffffffffffffffffffffffffffffff1673ffffffffffffffffffffffffffffffffffffffff16815260200190815260200160002060000181905550600760009054906101000a900473ffffffffffffffffffffffffffffffffffffffff1673ffffffffffffffffffffffffffffffffffffffff16636a627842336040518263ffffffff1660e01b81526004016104659190611167565b600060405180830381600087803b15801561047f57600080fd5b505af1158015610493573d6000803e3d6000fd5b50505050505050565b6104a46109cd565b600081116104e7576040517f08c379a00000000000000000000000000000000000000000000000000000000081526004016104de9061143a565b60405180910390fd5b8060018190555050565b6000600254426105019190611489565b4261050c91906114e9565b905090565b600460009054906101000a900473ffffffffffffffffffffffffffffffffffffffff1681565b60015481565b6105456109cd565b61054f6000610a4b565b565b600760009054906101000a900473ffffffffffffffffffffffffffffffffffffffff1681565b60025481565b60008060009054906101000a900473ffffffffffffffffffffffffffffffffffffffff16905090565b600660009054906101000a900473ffffffffffffffffffffffffffffffffffffffff1681565b6000600360003373ffffffffffffffffffffffffffffffffffffffff1673ffffffffffffffffffffffffffffffffffffffff1681526020019081526020016000206000015411610651576040517f08c379a000000000000000000000000000000000000000000000000000000000815260040161064890611569565b60405180910390fd5b600061065b6104f1565b905080600360003373ffffffffffffffffffffffffffffffffffffffff1673ffffffffffffffffffffffffffffffffffffffff168152602001908152602001600020600001541061078957600154600360003373ffffffffffffffffffffffffffffffffffffffff1673ffffffffffffffffffffffffffffffffffffffff168152602001908152602001600020600101541061072c576040517f08c379a0000000000000000000000000000000000000000000000000000000008152600401610723906115d5565b60405180910390fd5b600360003373ffffffffffffffffffffffffffffffffffffffff1673ffffffffffffffffffffffffffffffffffffffff168152602001908152602001600020600101600081548092919061077f906115f5565b9190505550610819565b80600360003373ffffffffffffffffffffffffffffffffffffffff1673ffffffffffffffffffffffffffffffffffffffff168152602001908152602001600020600001819055506001600360003373ffffffffffffffffffffffffffffffffffffffff1673ffffffffffffffffffffffffffffffffffffffff168152602001908152602001600020600101819055505b600660009054906101000a900473ffffffffffffffffffffffffffffffffffffffff1673ffffffffffffffffffffffffffffffffffffffff16636a627842336040518263ffffffff1660e01b81526004016108749190611167565b600060405180830381600087803b15801561088e57600080fd5b505af11580156108a2573d6000803e3d6000fd5b5050505050565b60036020528060005260406000206000915090508060000154908060010154905082565b600560009054906101000a900473ffffffffffffffffffffffffffffffffffffffff1681565b6108fb6109cd565b600073ffffffffffffffffffffffffffffffffffffffff168173ffffffffffffffffffffffffffffffffffffffff160361096a576040517f08c379a0000000000000000000000000000000000000000000000000000000008152600401610961906116af565b60405180910390fd5b61097381610a4b565b50565b6000816040516020016109899190611751565b604051602081830303815290604052805190602001209050919050565b60008060006109b58585610b0f565b915091506109c281610b60565b819250505092915050565b6109d5610d2c565b73ffffffffffffffffffffffffffffffffffffffff166109f361057d565b73ffffffffffffffffffffffffffffffffffffffff1614610a49576040517f08c379a0000000000000000000000000000000000000000000000000000000008152600401610a40906117c3565b60405180910390fd5b565b60008060009054906101000a900473ffffffffffffffffffffffffffffffffffffffff169050816000806101000a81548173ffffffffffffffffffffffffffffffffffffffff021916908373ffffffffffffffffffffffffffffffffffffffff1602179055508173ffffffffffffffffffffffffffffffffffffffff168173ffffffffffffffffffffffffffffffffffffffff167f8be0079c531659141344cd1fd0a4f28419497f9722a3daafe3b4186f6b6457e060405160405180910390a35050565b6000806041835103610b505760008060006020860151925060408601519150606086015160001a9050610b4487828585610d34565b94509450505050610b59565b60006002915091505b9250929050565b60006004811115610b7457610b736117e3565b5b816004811115610b8757610b866117e3565b5b0315610d295760016004811115610ba157610ba06117e3565b5b816004811115610bb457610bb36117e3565b5b03610bf4576040517f08c379a0000000000000000000000000000000000000000000000000000000008152600401610beb9061185e565b60405180910390fd5b60026004811115610c0857610c076117e3565b5b816004811115610c1b57610c1a6117e3565b5b03610c5b576040517f08c379a0000000000000000000000000000000000000000000000000000000008152600401610c52906118ca565b60405180910390fd5b60036004811115610c6f57610c6e6117e3565b5b816004811115610c8257610c816117e3565b5b03610cc2576040517f08c379a0000000000000000000000000000000000000000000000000000000008152600401610cb99061195c565b60405180910390fd5b600480811115610cd557610cd46117e3565b5b816004811115610ce857610ce76117e3565b5b03610d28576040517f08c379a0000000000000000000000000000000000000000000000000000000008152600401610d1f906119ee565b60405180910390fd5b5b50565b600033905090565b6000807f7fffffffffffffffffffffffffffffff5d576e7357a4501ddfe92f46681b20a08360001c1115610d6f576000600391509150610e37565b601b8560ff1614158015610d875750601c8560ff1614155b15610d99576000600491509150610e37565b600060018787878760405160008152602001604052604051610dbe9493929190611a39565b6020604051602081039080840390855afa158015610de0573d6000803e3d6000fd5b505050602060405103519050600073ffffffffffffffffffffffffffffffffffffffff168173ffffffffffffffffffffffffffffffffffffffff1603610e2e57600060019250925050610e37565b80600092509250505b94509492505050565b6000604051905090565b600080fd5b600080fd5b600080fd5b600080fd5b6000601f19601f8301169050919050565b7f4e487b7100000000000000000000000000000000000000000000000000000000600052604160045260246000fd5b610ea782610e5e565b810181811067ffffffffffffffff82111715610ec657610ec5610e6f565b5b80604052505050565b6000610ed9610e40565b9050610ee58282610e9e565b919050565b600067ffffffffffffffff821115610f0557610f04610e6f565b5b610f0e82610e5e565b9050602081019050919050565b82818337600083830152505050565b6000610f3d610f3884610eea565b610ecf565b905082815260208101848484011115610f5957610f58610e59565b5b610f64848285610f1b565b509392505050565b600082601f830112610f8157610f80610e54565b5b8135610f91848260208601610f2a565b91505092915050565b600060208284031215610fb057610faf610e4a565b5b600082013567ffffffffffffffff811115610fce57610fcd610e4f565b5b610fda84828501610f6c565b91505092915050565b6000819050919050565b610ff681610fe3565b811461100157600080fd5b50565b60008135905061101381610fed565b92915050565b60006020828403121561102f5761102e610e4a565b5b600061103d84828501611004565b91505092915050565b61104f81610fe3565b82525050565b600060208201905061106a6000830184611046565b92915050565b600073ffffffffffffffffffffffffffffffffffffffff82169050919050565b6000819050919050565b60006110b56110b06110ab84611070565b611090565b611070565b9050919050565b60006110c78261109a565b9050919050565b60006110d9826110bc565b9050919050565b6110e9816110ce565b82525050565b600060208201905061110460008301846110e0565b92915050565b6000611115826110bc565b9050919050565b6111258161110a565b82525050565b6000602082019050611140600083018461111c565b92915050565b600061115182611070565b9050919050565b61116181611146565b82525050565b600060208201905061117c6000830184611158565b92915050565b600061118d826110bc565b9050919050565b61119d81611182565b82525050565b60006020820190506111b86000830184611194565b92915050565b6111c781611146565b81146111d257600080fd5b50565b6000813590506111e4816111be565b92915050565b600060208284031215611200576111ff610e4a565b5b600061120e848285016111d5565b91505092915050565b600060408201905061122c6000830185611046565b6112396020830184611046565b9392505050565b600061124b826110bc565b9050919050565b61125b81611240565b82525050565b60006020820190506112766000830184611252565b92915050565b60008160601b9050919050565b60006112948261127c565b9050919050565b60006112a682611289565b9050919050565b6112be6112b982611146565b61129b565b82525050565b60006112d082846112ad565b60148201915081905092915050565b600082825260208201905092915050565b7f7065726d697373696f6e2064656e696564000000000000000000000000000000600082015250565b60006113266011836112df565b9150611331826112f0565b602082019050919050565b6000602082019050818103600083015261135581611319565b9050919050565b7f7573657220616c72656164792072656769737465726564000000000000000000600082015250565b60006113926017836112df565b915061139d8261135c565b602082019050919050565b600060208201905081810360008301526113c181611385565b9050919050565b7f4d61782070657220646179206d7573742062652067726561746572207468616e60008201527f2030000000000000000000000000000000000000000000000000000000000000602082015250565b60006114246022836112df565b915061142f826113c8565b604082019050919050565b6000602082019050818103600083015261145381611417565b9050919050565b7f4e487b7100000000000000000000000000000000000000000000000000000000600052601260045260246000fd5b600061149482610fe3565b915061149f83610fe3565b9250826114af576114ae61145a565b5b828206905092915050565b7f4e487b7100000000000000000000000000000000000000000000000000000000600052601160045260246000fd5b60006114f482610fe3565b91506114ff83610fe3565b9250828203905081811115611517576115166114ba565b5b92915050565b7f75736572206e6f74207265676973746572656400000000000000000000000000600082015250565b60006115536013836112df565b915061155e8261151d565b602082019050919050565b6000602082019050818103600083015261158281611546565b9050919050565b7f616c726561647920636c61696d6564206d617820746f64617900000000000000600082015250565b60006115bf6019836112df565b91506115ca82611589565b602082019050919050565b600060208201905081810360008301526115ee816115b2565b9050919050565b600061160082610fe3565b91507fffffffffffffffffffffffffffffffffffffffffffffffffffffffffffffffff8203611632576116316114ba565b5b600182019050919050565b7f4f776e61626c653a206e6577206f776e657220697320746865207a65726f206160008201527f6464726573730000000000000000000000000000000000000000000000000000602082015250565b60006116996026836112df565b91506116a48261163d565b604082019050919050565b600060208201905081810360008301526116c88161168c565b9050919050565b600081905092915050565b7f19457468657265756d205369676e6564204d6573736167653a0a333200000000600082015250565b6000611710601c836116cf565b915061171b826116da565b601c82019050919050565b6000819050919050565b6000819050919050565b61174b61174682611726565b611730565b82525050565b600061175c82611703565b9150611768828461173a565b60208201915081905092915050565b7f4f776e61626c653a2063616c6c6572206973206e6f7420746865206f776e6572600082015250565b60006117ad6020836112df565b91506117b882611777565b602082019050919050565b600060208201905081810360008301526117dc816117a0565b9050919050565b7f4e487b7100000000000000000000000000000000000000000000000000000000600052602160045260246000fd5b7f45434453413a20696e76616c6964207369676e61747572650000000000000000600082015250565b60006118486018836112df565b915061185382611812565b602082019050919050565b600060208201905081810360008301526118778161183b565b9050919050565b7f45434453413a20696e76616c6964207369676e6174757265206c656e67746800600082015250565b60006118b4601f836112df565b91506118bf8261187e565b602082019050919050565b600060208201905081810360008301526118e3816118a7565b9050919050565b7f45434453413a20696e76616c6964207369676e6174757265202773272076616c60008201527f7565000000000000000000000000000000000000000000000000000000000000602082015250565b60006119466022836112df565b9150611951826118ea565b604082019050919050565b6000602082019050818103600083015261197581611939565b9050919050565b7f45434453413a20696e76616c6964207369676e6174757265202776272076616c60008201527f7565000000000000000000000000000000000000000000000000000000000000602082015250565b60006119d86022836112df565b91506119e38261197c565b604082019050919050565b60006020820190508181036000830152611a07816119cb565b9050919050565b611a1781611726565b82525050565b600060ff82169050919050565b611a3381611a1d565b82525050565b6000608082019050611a4e6000830187611a0e565b611a5b6020830186611a2a565b611a686040830185611a0e565b611a756060830184611a0e565b9594505050505056fea264697066735822122038a8d05f88c7c08bac6a83a50f24a68a7f53eab833015cbc6dbeb34f80e9510764736f6c63430008110033",
  "linkReferences": {},
  "deployedLinkReferences": {}
}