{
  "_format": "hh-sol-artifact-1",
  "contractName": "Blue1155",
  "sourceName": "contracts/Blue1155.sol",
  "abi": [
    {
      "inputs": [
        {
          "internalType": "contract IERC20",
          "name": "_blue20",
          "type": "address"
        },
        {
          "internalType": "address",
          "name": "_tokenReceiver",
          "type": "address"
        }
      ],
      "stateMutability": "nonpayable",
      "type": "constructor"
    },
    {
      "anonymous": false,
      "inputs": [
        {
          "indexed": false,
          "internalType": "uint256",
          "name": "tokenId",
          "type": "uint256"
        },
        {
          "components": [
            {
              "internalType": "uint256",
              "name": "slotId",
              "type": "uint256"
            },
            {
              "internalType": "uint256",
              "name": "accessoryId",
              "type": "uint256"
            }
          ],
          "indexed": false,
          "internalType": "struct Blue1155.AccessoryDetails",
          "name": "details",
          "type": "tuple"
        },
        {
          "indexed": false,
          "internalType": "address",
          "name": "owner",
          "type": "address"
        }
      ],
      "name": "AccessoryPurchased",
      "type": "event"
    },
    {
      "anonymous": false,
      "inputs": [
        {
          "indexed": true,
          "internalType": "address",
          "name": "account",
          "type": "address"
        },
        {
          "indexed": true,
          "internalType": "address",
          "name": "operator",
          "type": "address"
        },
        {
          "indexed": false,
          "internalType": "bool",
          "name": "approved",
          "type": "bool"
        }
      ],
      "name": "ApprovalForAll",
      "type": "event"
    },
    {
      "anonymous": false,
      "inputs": [
        {
          "indexed": true,
          "internalType": "address",
          "name": "previousOwner",
          "type": "address"
        },
        {
          "indexed": true,
          "internalType": "address",
          "name": "newOwner",
          "type": "address"
        }
      ],
      "name": "OwnershipTransferred",
      "type": "event"
    },
    {
      "anonymous": false,
      "inputs": [
        {
          "indexed": true,
          "internalType": "address",
          "name": "operator",
          "type": "address"
        },
        {
          "indexed": true,
          "internalType": "address",
          "name": "from",
          "type": "address"
        },
        {
          "indexed": true,
          "internalType": "address",
          "name": "to",
          "type": "address"
        },
        {
          "indexed": false,
          "internalType": "uint256[]",
          "name": "ids",
          "type": "uint256[]"
        },
        {
          "indexed": false,
          "internalType": "uint256[]",
          "name": "values",
          "type": "uint256[]"
        }
      ],
      "name": "TransferBatch",
      "type": "event"
    },
    {
      "anonymous": false,
      "inputs": [
        {
          "indexed": true,
          "internalType": "address",
          "name": "operator",
          "type": "address"
        },
        {
          "indexed": true,
          "internalType": "address",
          "name": "from",
          "type": "address"
        },
        {
          "indexed": true,
          "internalType": "address",
          "name": "to",
          "type": "address"
        },
        {
          "indexed": false,
          "internalType": "uint256",
          "name": "id",
          "type": "uint256"
        },
        {
          "indexed": false,
          "internalType": "uint256",
          "name": "value",
          "type": "uint256"
        }
      ],
      "name": "TransferSingle",
      "type": "event"
    },
    {
      "anonymous": false,
      "inputs": [
        {
          "indexed": false,
          "internalType": "string",
          "name": "value",
          "type": "string"
        },
        {
          "indexed": true,
          "internalType": "uint256",
          "name": "id",
          "type": "uint256"
        }
      ],
      "name": "URI",
      "type": "event"
    },
    {
      "inputs": [
        {
          "internalType": "address",
          "name": "account",
          "type": "address"
        },
        {
          "internalType": "uint256",
          "name": "id",
          "type": "uint256"
        }
      ],
      "name": "balanceOf",
      "outputs": [
        {
          "internalType": "uint256",
          "name": "",
          "type": "uint256"
        }
      ],
      "stateMutability": "view",
      "type": "function"
    },
    {
      "inputs": [
        {
          "internalType": "address[]",
          "name": "accounts",
          "type": "address[]"
        },
        {
          "internalType": "uint256[]",
          "name": "ids",
          "type": "uint256[]"
        }
      ],
      "name": "balanceOfBatch",
      "outputs": [
        {
          "internalType": "uint256[]",
          "name": "",
          "type": "uint256[]"
        }
      ],
      "stateMutability": "view",
      "type": "function"
    },
    {
      "inputs": [],
      "name": "blue20",
      "outputs": [
        {
          "internalType": "contract IERC20",
          "name": "",
          "type": "address"
        }
      ],
      "stateMutability": "view",
      "type": "function"
    },
    {
      "inputs": [
        {
          "internalType": "uint256",
          "name": "tokenId",
          "type": "uint256"
        }
      ],
      "name": "buy",
      "outputs": [],
      "stateMutability": "nonpayable",
      "type": "function"
    },
    {
      "inputs": [],
      "name": "currentId",
      "outputs": [
        {
          "internalType": "uint256",
          "name": "_value",
          "type": "uint256"
        }
      ],
      "stateMutability": "view",
      "type": "function"
    },
    {
      "inputs": [
        {
          "internalType": "uint256",
          "name": "",
          "type": "uint256"
        }
      ],
      "name": "details",
      "outputs": [
        {
          "internalType": "uint256",
          "name": "slotId",
          "type": "uint256"
        },
        {
          "internalType": "uint256",
          "name": "accessoryId",
          "type": "uint256"
        }
      ],
      "stateMutability": "view",
      "type": "function"
    },
    {
      "inputs": [
        {
          "internalType": "uint256",
          "name": "tokenId",
          "type": "uint256"
        }
      ],
      "name": "getAccessory",
      "outputs": [
        {
          "components": [
            {
              "internalType": "uint256",
              "name": "slotId",
              "type": "uint256"
            },
            {
              "internalType": "uint256",
              "name": "accessoryId",
              "type": "uint256"
            }
          ],
          "internalType": "struct Blue1155.AccessoryDetails",
          "name": "",
          "type": "tuple"
        }
      ],
      "stateMutability": "view",
      "type": "function"
    },
    {
      "inputs": [
        {
          "internalType": "uint256",
          "name": "tokenId",
          "type": "uint256"
        }
      ],
      "name": "getAccessoryId",
      "outputs": [
        {
          "internalType": "uint256",
          "name": "accessoryId",
          "type": "uint256"
        }
      ],
      "stateMutability": "nonpayable",
      "type": "function"
    },
    {
      "inputs": [
        {
          "internalType": "uint256",
          "name": "tokenId",
          "type": "uint256"
        }
      ],
      "name": "getSlot",
      "outputs": [
        {
          "internalType": "uint256",
          "name": "slot",
          "type": "uint256"
        }
      ],
      "stateMutability": "nonpayable",
      "type": "function"
    },
    {
      "inputs": [
        {
          "internalType": "address",
          "name": "account",
          "type": "address"
        },
        {
          "internalType": "address",
          "name": "operator",
          "type": "address"
        }
      ],
      "name": "isApprovedForAll",
      "outputs": [
        {
          "internalType": "bool",
          "name": "",
          "type": "bool"
        }
      ],
      "stateMutability": "view",
      "type": "function"
    },
    {
      "inputs": [
        {
          "internalType": "uint256",
          "name": "slotId",
          "type": "uint256"
        },
        {
          "internalType": "uint256",
          "name": "accessoryId",
          "type": "uint256"
        }
      ],
      "name": "mint",
      "outputs": [],
      "stateMutability": "nonpayable",
      "type": "function"
    },
    {
      "inputs": [
        {
          "internalType": "uint256",
          "name": "slotId",
          "type": "uint256"
        },
        {
          "internalType": "uint256[]",
          "name": "accessoryIds",
          "type": "uint256[]"
        },
        {
          "internalType": "uint256",
          "name": "total",
          "type": "uint256"
        }
      ],
      "name": "mintBatch",
      "outputs": [],
      "stateMutability": "nonpayable",
      "type": "function"
    },
    {
      "inputs": [],
      "name": "owner",
      "outputs": [
        {
          "internalType": "address",
          "name": "",
          "type": "address"
        }
      ],
      "stateMutability": "view",
      "type": "function"
    },
    {
      "inputs": [],
      "name": "renounceOwnership",
      "outputs": [],
      "stateMutability": "nonpayable",
      "type": "function"
    },
    {
      "inputs": [
        {
          "internalType": "address",
          "name": "from",
          "type": "address"
        },
        {
          "internalType": "address",
          "name": "to",
          "type": "address"
        },
        {
          "internalType": "uint256[]",
          "name": "ids",
          "type": "uint256[]"
        },
        {
          "internalType": "uint256[]",
          "name": "amounts",
          "type": "uint256[]"
        },
        {
          "internalType": "bytes",
          "name": "data",
          "type": "bytes"
        }
      ],
      "name": "safeBatchTransferFrom",
      "outputs": [],
      "stateMutability": "nonpayable",
      "type": "function"
    },
    {
      "inputs": [
        {
          "internalType": "address",
          "name": "from",
          "type": "address"
        },
        {
          "internalType": "address",
          "name": "to",
          "type": "address"
        },
        {
          "internalType": "uint256",
          "name": "id",
          "type": "uint256"
        },
        {
          "internalType": "uint256",
          "name": "amount",
          "type": "uint256"
        },
        {
          "internalType": "bytes",
          "name": "data",
          "type": "bytes"
        }
      ],
      "name": "safeTransferFrom",
      "outputs": [],
      "stateMutability": "nonpayable",
      "type": "function"
    },
    {
      "inputs": [
        {
          "internalType": "address",
          "name": "operator",
          "type": "address"
        },
        {
          "internalType": "bool",
          "name": "approved",
          "type": "bool"
        }
      ],
      "name": "setApprovalForAll",
      "outputs": [],
      "stateMutability": "nonpayable",
      "type": "function"
    },
    {
      "inputs": [
        {
          "internalType": "bytes4",
          "name": "interfaceId",
          "type": "bytes4"
        }
      ],
      "name": "supportsInterface",
      "outputs": [
        {
          "internalType": "bool",
          "name": "",
          "type": "bool"
        }
      ],
      "stateMutability": "view",
      "type": "function"
    },
    {
      "inputs": [],
      "name": "tokenReceiver",
      "outputs": [
        {
          "internalType": "address",
          "name": "",
          "type": "address"
        }
      ],
      "stateMutability": "view",
      "type": "function"
    },
    {
      "inputs": [
        {
          "internalType": "address",
          "name": "newOwner",
          "type": "address"
        }
      ],
      "name": "transferOwnership",
      "outputs": [],
      "stateMutability": "nonpayable",
      "type": "function"
    },
    {
      "inputs": [
        {
          "internalType": "uint256",
          "name": "",
          "type": "uint256"
        }
      ],
      "name": "uri",
      "outputs": [
        {
          "internalType": "string",
          "name": "",
          "type": "string"
        }
      ],
      "stateMutability": "view",
      "type": "function"
    }
  ],
  "bytecode": "0x60806040523480156200001157600080fd5b50604051620042d4380380620042d4833981810160405281019062000037919062000383565b6040518060600160405280603a81526020016200429a603a91396200006281620001f160201b60201c565b5062000083620000776200020660201b60201c565b6200020e60201b60201c565b600073ffffffffffffffffffffffffffffffffffffffff168173ffffffffffffffffffffffffffffffffffffffff1603620000f5576040517f08c379a0000000000000000000000000000000000000000000000000000000008152600401620000ec906200042b565b60405180910390fd5b600073ffffffffffffffffffffffffffffffffffffffff168273ffffffffffffffffffffffffffffffffffffffff160362000167576040517f08c379a00000000000000000000000000000000000000000000000000000000081526004016200015e906200049d565b60405180910390fd5b81600560006101000a81548173ffffffffffffffffffffffffffffffffffffffff021916908373ffffffffffffffffffffffffffffffffffffffff16021790555080600660006101000a81548173ffffffffffffffffffffffffffffffffffffffff021916908373ffffffffffffffffffffffffffffffffffffffff160217905550505062000820565b806002908162000202919062000739565b5050565b600033905090565b6000600360009054906101000a900473ffffffffffffffffffffffffffffffffffffffff16905081600360006101000a81548173ffffffffffffffffffffffffffffffffffffffff021916908373ffffffffffffffffffffffffffffffffffffffff1602179055508173ffffffffffffffffffffffffffffffffffffffff168173ffffffffffffffffffffffffffffffffffffffff167f8be0079c531659141344cd1fd0a4f28419497f9722a3daafe3b4186f6b6457e060405160405180910390a35050565b600080fd5b600073ffffffffffffffffffffffffffffffffffffffff82169050919050565b60006200030682620002d9565b9050919050565b60006200031a82620002f9565b9050919050565b6200032c816200030d565b81146200033857600080fd5b50565b6000815190506200034c8162000321565b92915050565b6200035d81620002f9565b81146200036957600080fd5b50565b6000815190506200037d8162000352565b92915050565b600080604083850312156200039d576200039c620002d4565b5b6000620003ad858286016200033b565b9250506020620003c0858286016200036c565b9150509250929050565b600082825260208201905092915050565b7f696e76616c696420746f6b656e20726563656976657200000000000000000000600082015250565b600062000413601683620003ca565b91506200042082620003db565b602082019050919050565b60006020820190508181036000830152620004468162000404565b9050919050565b7f696e76616c696420626c75653230000000000000000000000000000000000000600082015250565b600062000485600e83620003ca565b915062000492826200044d565b602082019050919050565b60006020820190508181036000830152620004b88162000476565b9050919050565b600081519050919050565b7f4e487b7100000000000000000000000000000000000000000000000000000000600052604160045260246000fd5b7f4e487b7100000000000000000000000000000000000000000000000000000000600052602260045260246000fd5b600060028204905060018216806200054157607f821691505b602082108103620005575762000556620004f9565b5b50919050565b60008190508160005260206000209050919050565b60006020601f8301049050919050565b600082821b905092915050565b600060088302620005c17fffffffffffffffffffffffffffffffffffffffffffffffffffffffffffffffff8262000582565b620005cd868362000582565b95508019841693508086168417925050509392505050565b6000819050919050565b6000819050919050565b60006200061a620006146200060e84620005e5565b620005ef565b620005e5565b9050919050565b6000819050919050565b6200063683620005f9565b6200064e620006458262000621565b8484546200058f565b825550505050565b600090565b6200066562000656565b620006728184846200062b565b505050565b5b818110156200069a576200068e6000826200065b565b60018101905062000678565b5050565b601f821115620006e957620006b3816200055d565b620006be8462000572565b81016020851015620006ce578190505b620006e6620006dd8562000572565b83018262000677565b50505b505050565b600082821c905092915050565b60006200070e60001984600802620006ee565b1980831691505092915050565b6000620007298383620006fb565b9150826002028217905092915050565b6200074482620004bf565b67ffffffffffffffff81111562000760576200075f620004ca565b5b6200076c825462000528565b620007798282856200069e565b600060209050601f831160018114620007b157600084156200079c578287015190505b620007a885826200071b565b86555062000818565b601f198416620007c1866200055d565b60005b82811015620007eb57848901518255600182019150602085019450602081019050620007c4565b868310156200080b578489015162000807601f891682620006fb565b8355505b6001600288020188555050505b505050505050565b613a6a80620008306000396000f3fe608060405234801561001057600080fd5b50600436106101365760003560e01c80638da5cb5b116100b8578063a813f6211161007c578063a813f62114610372578063d96a094a14610390578063e00dd161146103ac578063e985e9c5146103ca578063f242432a146103fa578063f2fde38b1461041657610136565b80638da5cb5b146102cd578063965714e1146102eb578063a005ec7a14610307578063a22cb46514610338578063a3e295bc1461035457610136565b80632eb2c2d6116100ff5780632eb2c2d614610217578063497779fd146102335780634e1273f414610263578063715018a6146102935780637eba7ba61461029d57610136565b8062fdd58e1461013b57806301637ff41461016b57806301ffc9a71461019b5780630e89341c146101cb5780631b2ef1ca146101fb575b600080fd5b61015560048036038101906101509190612291565b610432565b60405161016291906122e0565b60405180910390f35b610185600480360381019061018091906122fb565b6104fa565b6040516101929190612366565b60405180910390f35b6101b560048036038101906101b091906123d9565b61053b565b6040516101c29190612421565b60405180910390f35b6101e560048036038101906101e091906122fb565b61061d565b6040516101f291906124cc565b60405180910390f35b610215600480360381019061021091906124ee565b6106b1565b005b610231600480360381019061022c919061272b565b6107be565b005b61024d600480360381019061024891906122fb565b61085f565b60405161025a91906122e0565b60405180910390f35b61027d600480360381019061027891906128bd565b61087f565b60405161028a91906129e4565b60405180910390f35b61029b610998565b005b6102b760048036038101906102b291906122fb565b6109ac565b6040516102c491906122e0565b60405180910390f35b6102d56109cc565b6040516102e29190612a15565b60405180910390f35b61030560048036038101906103009190612a30565b6109f6565b005b610321600480360381019061031c91906122fb565b610cc1565b60405161032f929190612a9f565b60405180910390f35b610352600480360381019061034d9190612af4565b610ce5565b005b61035c610cfb565b6040516103699190612a15565b60405180910390f35b61037a610d21565b6040516103879190612b93565b60405180910390f35b6103aa60048036038101906103a591906122fb565b610d47565b005b6103b4610ed2565b6040516103c191906122e0565b60405180910390f35b6103e460048036038101906103df9190612bae565b610ede565b6040516103f19190612421565b60405180910390f35b610414600480360381019061040f9190612bee565b610f72565b005b610430600480360381019061042b9190612c85565b611013565b005b60008073ffffffffffffffffffffffffffffffffffffffff168373ffffffffffffffffffffffffffffffffffffffff16036104a2576040517f08c379a000000000000000000000000000000000000000000000000000000000815260040161049990612d24565b60405180910390fd5b60008083815260200190815260200160002060008473ffffffffffffffffffffffffffffffffffffffff1673ffffffffffffffffffffffffffffffffffffffff16815260200190815260200160002054905092915050565b6105026121cf565b60076000838152602001908152602001600020604051806040016040529081600082015481526020016001820154815250509050919050565b60007fd9b67a26000000000000000000000000000000000000000000000000000000007bffffffffffffffffffffffffffffffffffffffffffffffffffffffff1916827bffffffffffffffffffffffffffffffffffffffffffffffffffffffff1916148061060657507f0e89341c000000000000000000000000000000000000000000000000000000007bffffffffffffffffffffffffffffffffffffffffffffffffffffffff1916827bffffffffffffffffffffffffffffffffffffffffffffffffffffffff1916145b80610616575061061582611096565b5b9050919050565b60606002805461062c90612d73565b80601f016020809104026020016040519081016040528092919081815260200182805461065890612d73565b80156106a55780601f1061067a576101008083540402835291602001916106a5565b820191906000526020600020905b81548152906001019060200180831161068857829003601f168201915b50505050509050919050565b6106b9611100565b8181600082116106fe576040517f08c379a00000000000000000000000000000000000000000000000000000000081526004016106f590612df0565b60405180910390fd5b60008111610741576040517f08c379a000000000000000000000000000000000000000000000000000000000815260040161073890612e5c565b60405180910390fd5b61074b600461117e565b610770336107596004611194565b6001604051806020016040528060008152506111a2565b604051806040016040528085815260200184815250600760006107936004611194565b8152602001908152602001600020600082015181600001556020820151816001015590505050505050565b6107c6611352565b73ffffffffffffffffffffffffffffffffffffffff168573ffffffffffffffffffffffffffffffffffffffff16148061080c575061080b85610806611352565b610ede565b5b61084b576040517f08c379a000000000000000000000000000000000000000000000000000000000815260040161084290612eee565b60405180910390fd5b610858858585858561135a565b5050505050565b600060076000838152602001908152602001600020600101549050919050565b606081518351146108c5576040517f08c379a00000000000000000000000000000000000000000000000000000000081526004016108bc90612f80565b60405180910390fd5b6000835167ffffffffffffffff8111156108e2576108e1612533565b5b6040519080825280602002602001820160405280156109105781602001602082028036833780820191505090505b50905060005b845181101561098d5761095d85828151811061093557610934612fa0565b5b60200260200101518583815181106109505761094f612fa0565b5b6020026020010151610432565b8282815181106109705761096f612fa0565b5b6020026020010181815250508061098690612ffe565b9050610916565b508091505092915050565b6109a0611100565b6109aa600061167b565b565b600060076000838152602001908152602001600020600001549050919050565b6000600360009054906101000a900473ffffffffffffffffffffffffffffffffffffffff16905090565b6109fe611100565b82600160008211610a44576040517f08c379a0000000000000000000000000000000000000000000000000000000008152600401610a3b90612df0565b60405180910390fd5b60008111610a87576040517f08c379a0000000000000000000000000000000000000000000000000000000008152600401610a7e90612e5c565b60405180910390fd5b610a91600461117e565b6000610a9d6004611194565b905060008467ffffffffffffffff811115610abb57610aba612533565b5b604051908082528060200260200182016040528015610ae95781602001602082028036833780820191505090505b50905060008567ffffffffffffffff811115610b0857610b07612533565b5b604051908082528060200260200182016040528015610b365781602001602082028036833780820191505090505b5090505b8583610b469190613046565b610b506004611194565b1015610c9c57600083610b636004611194565b610b6d919061307a565b9050610b796004611194565b838281518110610b8c57610b8b612fa0565b5b60200260200101818152505060018285610ba66004611194565b610bb0919061307a565b81518110610bc157610bc0612fa0565b5b6020026020010181815250506000888281518110610be257610be1612fa0565b5b602002602001015111610c2a576040517f08c379a0000000000000000000000000000000000000000000000000000000008152600401610c21906130fa565b60405180910390fd5b60405180604001604052808a8152602001898381518110610c4e57610c4d612fa0565b5b602002602001015181525060076000610c676004611194565b8152602001908152602001600020600082015181600001556020820151816001015590505050610c97600461117e565b610b3a565b610cb733838360405180602001604052806000815250611741565b5050505050505050565b60076020528060005260406000206000915090508060000154908060010154905082565b610cf7610cf0611352565b838361196d565b5050565b600660009054906101000a900473ffffffffffffffffffffffffffffffffffffffff1681565b600560009054906101000a900473ffffffffffffffffffffffffffffffffffffffff1681565b6000600760008381526020019081526020016000206000015411610da0576040517f08c379a0000000000000000000000000000000000000000000000000000000008152600401610d9790613166565b60405180910390fd5b600560009054906101000a900473ffffffffffffffffffffffffffffffffffffffff1673ffffffffffffffffffffffffffffffffffffffff166323b872dd33600660009054906101000a900473ffffffffffffffffffffffffffffffffffffffff1660026040518463ffffffff1660e01b8152600401610e22939291906131c1565b6020604051808303816000875af1158015610e41573d6000803e3d6000fd5b505050506040513d601f19601f82011682018060405250810190610e65919061320d565b50610e8233826001604051806020016040528060008152506111a2565b7fb65e56402adbbe563a83f1f4882f12edb0d8bd627dd24260d5c7b6e33cdbac88816007600084815260200190815260200160002033604051610ec7939291906132b2565b60405180910390a150565b60048060000154905081565b6000600160008473ffffffffffffffffffffffffffffffffffffffff1673ffffffffffffffffffffffffffffffffffffffff16815260200190815260200160002060008373ffffffffffffffffffffffffffffffffffffffff1673ffffffffffffffffffffffffffffffffffffffff16815260200190815260200160002060009054906101000a900460ff16905092915050565b610f7a611352565b73ffffffffffffffffffffffffffffffffffffffff168573ffffffffffffffffffffffffffffffffffffffff161480610fc05750610fbf85610fba611352565b610ede565b5b610fff576040517f08c379a0000000000000000000000000000000000000000000000000000000008152600401610ff690612eee565b60405180910390fd5b61100c8585858585611ad9565b5050505050565b61101b611100565b600073ffffffffffffffffffffffffffffffffffffffff168173ffffffffffffffffffffffffffffffffffffffff160361108a576040517f08c379a00000000000000000000000000000000000000000000000000000000081526004016110819061335b565b60405180910390fd5b6110938161167b565b50565b60007f01ffc9a7000000000000000000000000000000000000000000000000000000007bffffffffffffffffffffffffffffffffffffffffffffffffffffffff1916827bffffffffffffffffffffffffffffffffffffffffffffffffffffffff1916149050919050565b611108611352565b73ffffffffffffffffffffffffffffffffffffffff166111266109cc565b73ffffffffffffffffffffffffffffffffffffffff161461117c576040517f08c379a0000000000000000000000000000000000000000000000000000000008152600401611173906133c7565b60405180910390fd5b565b6001816000016000828254019250508190555050565b600081600001549050919050565b600073ffffffffffffffffffffffffffffffffffffffff168473ffffffffffffffffffffffffffffffffffffffff1603611211576040517f08c379a000000000000000000000000000000000000000000000000000000000815260040161120890613459565b60405180910390fd5b600061121b611352565b9050600061122885611d74565b9050600061123585611d74565b905061124683600089858589611dee565b8460008088815260200190815260200160002060008973ffffffffffffffffffffffffffffffffffffffff1673ffffffffffffffffffffffffffffffffffffffff16815260200190815260200160002060008282546112a59190613046565b925050819055508673ffffffffffffffffffffffffffffffffffffffff16600073ffffffffffffffffffffffffffffffffffffffff168473ffffffffffffffffffffffffffffffffffffffff167fc3d58168c5ae7397731d063d5bbf3d657854427343f4c083240f7aacaa2d0f628989604051611323929190612a9f565b60405180910390a461133a83600089858589611df6565b61134983600089898989611dfe565b50505050505050565b600033905090565b815183511461139e576040517f08c379a0000000000000000000000000000000000000000000000000000000008152600401611395906134eb565b60405180910390fd5b600073ffffffffffffffffffffffffffffffffffffffff168473ffffffffffffffffffffffffffffffffffffffff160361140d576040517f08c379a00000000000000000000000000000000000000000000000000000000081526004016114049061357d565b60405180910390fd5b6000611417611352565b9050611427818787878787611dee565b60005b84518110156115d857600085828151811061144857611447612fa0565b5b60200260200101519050600085838151811061146757611466612fa0565b5b60200260200101519050600080600084815260200190815260200160002060008b73ffffffffffffffffffffffffffffffffffffffff1673ffffffffffffffffffffffffffffffffffffffff16815260200190815260200160002054905081811015611508576040517f08c379a00000000000000000000000000000000000000000000000000000000081526004016114ff9061360f565b60405180910390fd5b81810360008085815260200190815260200160002060008c73ffffffffffffffffffffffffffffffffffffffff1673ffffffffffffffffffffffffffffffffffffffff168152602001908152602001600020819055508160008085815260200190815260200160002060008b73ffffffffffffffffffffffffffffffffffffffff1673ffffffffffffffffffffffffffffffffffffffff16815260200190815260200160002060008282546115bd9190613046565b92505081905550505050806115d190612ffe565b905061142a565b508473ffffffffffffffffffffffffffffffffffffffff168673ffffffffffffffffffffffffffffffffffffffff168273ffffffffffffffffffffffffffffffffffffffff167f4a39dc06d4c0dbc64b70af90fd698a233a518aa5d07e595d983b8c0526c8f7fb878760405161164f92919061362f565b60405180910390a4611665818787878787611df6565b611673818787878787611fd5565b505050505050565b6000600360009054906101000a900473ffffffffffffffffffffffffffffffffffffffff16905081600360006101000a81548173ffffffffffffffffffffffffffffffffffffffff021916908373ffffffffffffffffffffffffffffffffffffffff1602179055508173ffffffffffffffffffffffffffffffffffffffff168173ffffffffffffffffffffffffffffffffffffffff167f8be0079c531659141344cd1fd0a4f28419497f9722a3daafe3b4186f6b6457e060405160405180910390a35050565b600073ffffffffffffffffffffffffffffffffffffffff168473ffffffffffffffffffffffffffffffffffffffff16036117b0576040517f08c379a00000000000000000000000000000000000000000000000000000000081526004016117a790613459565b60405180910390fd5b81518351146117f4576040517f08c379a00000000000000000000000000000000000000000000000000000000081526004016117eb906134eb565b60405180910390fd5b60006117fe611352565b905061180f81600087878787611dee565b60005b84518110156118c85783818151811061182e5761182d612fa0565b5b602002602001015160008087848151811061184c5761184b612fa0565b5b6020026020010151815260200190815260200160002060008873ffffffffffffffffffffffffffffffffffffffff1673ffffffffffffffffffffffffffffffffffffffff16815260200190815260200160002060008282546118ae9190613046565b9250508190555080806118c090612ffe565b915050611812565b508473ffffffffffffffffffffffffffffffffffffffff16600073ffffffffffffffffffffffffffffffffffffffff168273ffffffffffffffffffffffffffffffffffffffff167f4a39dc06d4c0dbc64b70af90fd698a233a518aa5d07e595d983b8c0526c8f7fb878760405161194092919061362f565b60405180910390a461195781600087878787611df6565b61196681600087878787611fd5565b5050505050565b8173ffffffffffffffffffffffffffffffffffffffff168373ffffffffffffffffffffffffffffffffffffffff16036119db576040517f08c379a00000000000000000000000000000000000000000000000000000000081526004016119d2906136d8565b60405180910390fd5b80600160008573ffffffffffffffffffffffffffffffffffffffff1673ffffffffffffffffffffffffffffffffffffffff16815260200190815260200160002060008473ffffffffffffffffffffffffffffffffffffffff1673ffffffffffffffffffffffffffffffffffffffff16815260200190815260200160002060006101000a81548160ff0219169083151502179055508173ffffffffffffffffffffffffffffffffffffffff168373ffffffffffffffffffffffffffffffffffffffff167f17307eab39ab6107e8899845ad3d59bd9653f200f220920489ca2b5937696c3183604051611acc9190612421565b60405180910390a3505050565b600073ffffffffffffffffffffffffffffffffffffffff168473ffffffffffffffffffffffffffffffffffffffff1603611b48576040517f08c379a0000000000000000000000000000000000000000000000000000000008152600401611b3f9061357d565b60405180910390fd5b6000611b52611352565b90506000611b5f85611d74565b90506000611b6c85611d74565b9050611b7c838989858589611dee565b600080600088815260200190815260200160002060008a73ffffffffffffffffffffffffffffffffffffffff1673ffffffffffffffffffffffffffffffffffffffff16815260200190815260200160002054905085811015611c13576040517f08c379a0000000000000000000000000000000000000000000000000000000008152600401611c0a9061360f565b60405180910390fd5b85810360008089815260200190815260200160002060008b73ffffffffffffffffffffffffffffffffffffffff1673ffffffffffffffffffffffffffffffffffffffff168152602001908152602001600020819055508560008089815260200190815260200160002060008a73ffffffffffffffffffffffffffffffffffffffff1673ffffffffffffffffffffffffffffffffffffffff1681526020019081526020016000206000828254611cc89190613046565b925050819055508773ffffffffffffffffffffffffffffffffffffffff168973ffffffffffffffffffffffffffffffffffffffff168573ffffffffffffffffffffffffffffffffffffffff167fc3d58168c5ae7397731d063d5bbf3d657854427343f4c083240f7aacaa2d0f628a8a604051611d45929190612a9f565b60405180910390a4611d5b848a8a86868a611df6565b611d69848a8a8a8a8a611dfe565b505050505050505050565b60606000600167ffffffffffffffff811115611d9357611d92612533565b5b604051908082528060200260200182016040528015611dc15781602001602082028036833780820191505090505b5090508281600081518110611dd957611dd8612fa0565b5b60200260200101818152505080915050919050565b505050505050565b505050505050565b611e1d8473ffffffffffffffffffffffffffffffffffffffff166121ac565b15611fcd578373ffffffffffffffffffffffffffffffffffffffff1663f23a6e6187878686866040518663ffffffff1660e01b8152600401611e6395949392919061374d565b6020604051808303816000875af1925050508015611e9f57506040513d601f19601f82011682018060405250810190611e9c91906137bc565b60015b611f4457611eab6137f6565b806308c379a003611f075750611ebf613818565b80611eca5750611f09565b806040517f08c379a0000000000000000000000000000000000000000000000000000000008152600401611efe91906124cc565b60405180910390fd5b505b6040517f08c379a0000000000000000000000000000000000000000000000000000000008152600401611f3b9061391a565b60405180910390fd5b63f23a6e6160e01b7bffffffffffffffffffffffffffffffffffffffffffffffffffffffff1916817bffffffffffffffffffffffffffffffffffffffffffffffffffffffff191614611fcb576040517f08c379a0000000000000000000000000000000000000000000000000000000008152600401611fc2906139ac565b60405180910390fd5b505b505050505050565b611ff48473ffffffffffffffffffffffffffffffffffffffff166121ac565b156121a4578373ffffffffffffffffffffffffffffffffffffffff1663bc197c8187878686866040518663ffffffff1660e01b815260040161203a9594939291906139cc565b6020604051808303816000875af192505050801561207657506040513d601f19601f8201168201806040525081019061207391906137bc565b60015b61211b576120826137f6565b806308c379a0036120de5750612096613818565b806120a157506120e0565b806040517f08c379a00000000000000000000000000000000000000000000000000000000081526004016120d591906124cc565b60405180910390fd5b505b6040517f08c379a00000000000000000000000000000000000000000000000000000000081526004016121129061391a565b60405180910390fd5b63bc197c8160e01b7bffffffffffffffffffffffffffffffffffffffffffffffffffffffff1916817bffffffffffffffffffffffffffffffffffffffffffffffffffffffff1916146121a2576040517f08c379a0000000000000000000000000000000000000000000000000000000008152600401612199906139ac565b60405180910390fd5b505b505050505050565b6000808273ffffffffffffffffffffffffffffffffffffffff163b119050919050565b604051806040016040528060008152602001600081525090565b6000604051905090565b600080fd5b600080fd5b600073ffffffffffffffffffffffffffffffffffffffff82169050919050565b6000612228826121fd565b9050919050565b6122388161221d565b811461224357600080fd5b50565b6000813590506122558161222f565b92915050565b6000819050919050565b61226e8161225b565b811461227957600080fd5b50565b60008135905061228b81612265565b92915050565b600080604083850312156122a8576122a76121f3565b5b60006122b685828601612246565b92505060206122c78582860161227c565b9150509250929050565b6122da8161225b565b82525050565b60006020820190506122f560008301846122d1565b92915050565b600060208284031215612311576123106121f3565b5b600061231f8482850161227c565b91505092915050565b6123318161225b565b82525050565b60408201600082015161234d6000850182612328565b5060208201516123606020850182612328565b50505050565b600060408201905061237b6000830184612337565b92915050565b60007fffffffff0000000000000000000000000000000000000000000000000000000082169050919050565b6123b681612381565b81146123c157600080fd5b50565b6000813590506123d3816123ad565b92915050565b6000602082840312156123ef576123ee6121f3565b5b60006123fd848285016123c4565b91505092915050565b60008115159050919050565b61241b81612406565b82525050565b60006020820190506124366000830184612412565b92915050565b600081519050919050565b600082825260208201905092915050565b60005b8381101561247657808201518184015260208101905061245b565b60008484015250505050565b6000601f19601f8301169050919050565b600061249e8261243c565b6124a88185612447565b93506124b8818560208601612458565b6124c181612482565b840191505092915050565b600060208201905081810360008301526124e68184612493565b905092915050565b60008060408385031215612505576125046121f3565b5b60006125138582860161227c565b92505060206125248582860161227c565b9150509250929050565b600080fd5b7f4e487b7100000000000000000000000000000000000000000000000000000000600052604160045260246000fd5b61256b82612482565b810181811067ffffffffffffffff8211171561258a57612589612533565b5b80604052505050565b600061259d6121e9565b90506125a98282612562565b919050565b600067ffffffffffffffff8211156125c9576125c8612533565b5b602082029050602081019050919050565b600080fd5b60006125f26125ed846125ae565b612593565b90508083825260208201905060208402830185811115612615576126146125da565b5b835b8181101561263e578061262a888261227c565b845260208401935050602081019050612617565b5050509392505050565b600082601f83011261265d5761265c61252e565b5b813561266d8482602086016125df565b91505092915050565b600080fd5b600067ffffffffffffffff82111561269657612695612533565b5b61269f82612482565b9050602081019050919050565b82818337600083830152505050565b60006126ce6126c98461267b565b612593565b9050828152602081018484840111156126ea576126e9612676565b5b6126f58482856126ac565b509392505050565b600082601f8301126127125761271161252e565b5b81356127228482602086016126bb565b91505092915050565b600080600080600060a08688031215612747576127466121f3565b5b600061275588828901612246565b955050602061276688828901612246565b945050604086013567ffffffffffffffff811115612787576127866121f8565b5b61279388828901612648565b935050606086013567ffffffffffffffff8111156127b4576127b36121f8565b5b6127c088828901612648565b925050608086013567ffffffffffffffff8111156127e1576127e06121f8565b5b6127ed888289016126fd565b9150509295509295909350565b600067ffffffffffffffff82111561281557612814612533565b5b602082029050602081019050919050565b6000612839612834846127fa565b612593565b9050808382526020820190506020840283018581111561285c5761285b6125da565b5b835b8181101561288557806128718882612246565b84526020840193505060208101905061285e565b5050509392505050565b600082601f8301126128a4576128a361252e565b5b81356128b4848260208601612826565b91505092915050565b600080604083850312156128d4576128d36121f3565b5b600083013567ffffffffffffffff8111156128f2576128f16121f8565b5b6128fe8582860161288f565b925050602083013567ffffffffffffffff81111561291f5761291e6121f8565b5b61292b85828601612648565b9150509250929050565b600081519050919050565b600082825260208201905092915050565b6000819050602082019050919050565b600061296d8383612328565b60208301905092915050565b6000602082019050919050565b600061299182612935565b61299b8185612940565b93506129a683612951565b8060005b838110156129d75781516129be8882612961565b97506129c983612979565b9250506001810190506129aa565b5085935050505092915050565b600060208201905081810360008301526129fe8184612986565b905092915050565b612a0f8161221d565b82525050565b6000602082019050612a2a6000830184612a06565b92915050565b600080600060608486031215612a4957612a486121f3565b5b6000612a578682870161227c565b935050602084013567ffffffffffffffff811115612a7857612a776121f8565b5b612a8486828701612648565b9250506040612a958682870161227c565b9150509250925092565b6000604082019050612ab460008301856122d1565b612ac160208301846122d1565b9392505050565b612ad181612406565b8114612adc57600080fd5b50565b600081359050612aee81612ac8565b92915050565b60008060408385031215612b0b57612b0a6121f3565b5b6000612b1985828601612246565b9250506020612b2a85828601612adf565b9150509250929050565b6000819050919050565b6000612b59612b54612b4f846121fd565b612b34565b6121fd565b9050919050565b6000612b6b82612b3e565b9050919050565b6000612b7d82612b60565b9050919050565b612b8d81612b72565b82525050565b6000602082019050612ba86000830184612b84565b92915050565b60008060408385031215612bc557612bc46121f3565b5b6000612bd385828601612246565b9250506020612be485828601612246565b9150509250929050565b600080600080600060a08688031215612c0a57612c096121f3565b5b6000612c1888828901612246565b9550506020612c2988828901612246565b9450506040612c3a8882890161227c565b9350506060612c4b8882890161227c565b925050608086013567ffffffffffffffff811115612c6c57612c6b6121f8565b5b612c78888289016126fd565b9150509295509295909350565b600060208284031215612c9b57612c9a6121f3565b5b6000612ca984828501612246565b91505092915050565b7f455243313135353a2061646472657373207a65726f206973206e6f742061207660008201527f616c6964206f776e657200000000000000000000000000000000000000000000602082015250565b6000612d0e602a83612447565b9150612d1982612cb2565b604082019050919050565b60006020820190508181036000830152612d3d81612d01565b9050919050565b7f4e487b7100000000000000000000000000000000000000000000000000000000600052602260045260246000fd5b60006002820490506001821680612d8b57607f821691505b602082108103612d9e57612d9d612d44565b5b50919050565b7f696e76616c696420736c6f742069640000000000000000000000000000000000600082015250565b6000612dda600f83612447565b9150612de582612da4565b602082019050919050565b60006020820190508181036000830152612e0981612dcd565b9050919050565b7f696e76616c6964206163636573736f7279206964000000000000000000000000600082015250565b6000612e46601483612447565b9150612e5182612e10565b602082019050919050565b60006020820190508181036000830152612e7581612e39565b9050919050565b7f455243313135353a2063616c6c6572206973206e6f7420746f6b656e206f776e60008201527f6572206e6f7220617070726f7665640000000000000000000000000000000000602082015250565b6000612ed8602f83612447565b9150612ee382612e7c565b604082019050919050565b60006020820190508181036000830152612f0781612ecb565b9050919050565b7f455243313135353a206163636f756e747320616e6420696473206c656e67746860008201527f206d69736d617463680000000000000000000000000000000000000000000000602082015250565b6000612f6a602983612447565b9150612f7582612f0e565b604082019050919050565b60006020820190508181036000830152612f9981612f5d565b9050919050565b7f4e487b7100000000000000000000000000000000000000000000000000000000600052603260045260246000fd5b7f4e487b7100000000000000000000000000000000000000000000000000000000600052601160045260246000fd5b60006130098261225b565b91507fffffffffffffffffffffffffffffffffffffffffffffffffffffffffffffffff820361303b5761303a612fcf565b5b600182019050919050565b60006130518261225b565b915061305c8361225b565b925082820190508082111561307457613073612fcf565b5b92915050565b60006130858261225b565b91506130908361225b565b92508282039050818111156130a8576130a7612fcf565b5b92915050565b7f696e76616c69642061636365736f727920696400000000000000000000000000600082015250565b60006130e4601383612447565b91506130ef826130ae565b602082019050919050565b60006020820190508181036000830152613113816130d7565b9050919050565b7f746f6b656e20646f6573206e6f74206578697374000000000000000000000000600082015250565b6000613150601483612447565b915061315b8261311a565b602082019050919050565b6000602082019050818103600083015261317f81613143565b9050919050565b6000819050919050565b60006131ab6131a66131a184613186565b612b34565b61225b565b9050919050565b6131bb81613190565b82525050565b60006060820190506131d66000830186612a06565b6131e36020830185612a06565b6131f060408301846131b2565b949350505050565b60008151905061320781612ac8565b92915050565b600060208284031215613223576132226121f3565b5b6000613231848285016131f8565b91505092915050565b60008160001c9050919050565b6000819050919050565b600061326461325f8361323a565b613247565b9050919050565b60408201600080830154905061328081613251565b61328d6000860182612328565b506001830154905061329e81613251565b6132ab6020860182612328565b5050505050565b60006080820190506132c760008301866122d1565b6132d4602083018561326b565b6132e16060830184612a06565b949350505050565b7f4f776e61626c653a206e6577206f776e657220697320746865207a65726f206160008201527f6464726573730000000000000000000000000000000000000000000000000000602082015250565b6000613345602683612447565b9150613350826132e9565b604082019050919050565b6000602082019050818103600083015261337481613338565b9050919050565b7f4f776e61626c653a2063616c6c6572206973206e6f7420746865206f776e6572600082015250565b60006133b1602083612447565b91506133bc8261337b565b602082019050919050565b600060208201905081810360008301526133e0816133a4565b9050919050565b7f455243313135353a206d696e7420746f20746865207a65726f2061646472657360008201527f7300000000000000000000000000000000000000000000000000000000000000602082015250565b6000613443602183612447565b915061344e826133e7565b604082019050919050565b6000602082019050818103600083015261347281613436565b9050919050565b7f455243313135353a2069647320616e6420616d6f756e7473206c656e6774682060008201527f6d69736d61746368000000000000000000000000000000000000000000000000602082015250565b60006134d5602883612447565b91506134e082613479565b604082019050919050565b60006020820190508181036000830152613504816134c8565b9050919050565b7f455243313135353a207472616e7366657220746f20746865207a65726f20616460008201527f6472657373000000000000000000000000000000000000000000000000000000602082015250565b6000613567602583612447565b91506135728261350b565b604082019050919050565b600060208201905081810360008301526135968161355a565b9050919050565b7f455243313135353a20696e73756666696369656e742062616c616e636520666f60008201527f72207472616e7366657200000000000000000000000000000000000000000000602082015250565b60006135f9602a83612447565b91506136048261359d565b604082019050919050565b60006020820190508181036000830152613628816135ec565b9050919050565b600060408201905081810360008301526136498185612986565b9050818103602083015261365d8184612986565b90509392505050565b7f455243313135353a2073657474696e6720617070726f76616c2073746174757360008201527f20666f722073656c660000000000000000000000000000000000000000000000602082015250565b60006136c2602983612447565b91506136cd82613666565b604082019050919050565b600060208201905081810360008301526136f1816136b5565b9050919050565b600081519050919050565b600082825260208201905092915050565b600061371f826136f8565b6137298185613703565b9350613739818560208601612458565b61374281612482565b840191505092915050565b600060a0820190506137626000830188612a06565b61376f6020830187612a06565b61377c60408301866122d1565b61378960608301856122d1565b818103608083015261379b8184613714565b90509695505050505050565b6000815190506137b6816123ad565b92915050565b6000602082840312156137d2576137d16121f3565b5b60006137e0848285016137a7565b91505092915050565b60008160e01c9050919050565b600060033d11156138155760046000803e6138126000516137e9565b90505b90565b600060443d106138a55761382a6121e9565b60043d036004823e80513d602482011167ffffffffffffffff821117156138525750506138a5565b808201805167ffffffffffffffff81111561387057505050506138a5565b80602083010160043d03850181111561388d5750505050506138a5565b61389c82602001850186612562565b82955050505050505b90565b7f455243313135353a207472616e7366657220746f206e6f6e204552433131353560008201527f526563656976657220696d706c656d656e746572000000000000000000000000602082015250565b6000613904603483612447565b915061390f826138a8565b604082019050919050565b60006020820190508181036000830152613933816138f7565b9050919050565b7f455243313135353a204552433131353552656365697665722072656a6563746560008201527f6420746f6b656e73000000000000000000000000000000000000000000000000602082015250565b6000613996602883612447565b91506139a18261393a565b604082019050919050565b600060208201905081810360008301526139c581613989565b9050919050565b600060a0820190506139e16000830188612a06565b6139ee6020830187612a06565b8181036040830152613a008186612986565b90508181036060830152613a148185612986565b90508181036080830152613a288184613714565b9050969550505050505056fea26469706673582212202e97766b5d259cf11c748e9c33210934b7d3ed5a5f81ad808b73119ad650db7964736f6c6343000811003368747470733a2f2f626c75652d6170692e6e65746c6966792e6170702f6170692f6d657461646174612f6163636573736f726965732f7b69647d",
  "linkReferences": {},
  "deployedLinkReferences": {}
}